{
  "_format": "hh-sol-artifact-1",
  "contractName": "CourseRegistration",
  "sourceName": "contracts/CourseRegistration.sol",
  "abi": [
    {
      "inputs": [],
      "stateMutability": "nonpayable",
      "type": "constructor"
    },
    {
      "anonymous": false,
      "inputs": [
        {
          "indexed": false,
          "internalType": "address",
          "name": "studentAddress",
          "type": "address"
        },
        {
          "indexed": false,
          "internalType": "string",
          "name": "courseName",
          "type": "string"
        }
      ],
      "name": "CourseRegistered",
      "type": "event"
    },
    {
      "anonymous": false,
      "inputs": [
        {
          "indexed": false,
          "internalType": "address",
          "name": "studentAddress",
          "type": "address"
        },
        {
          "indexed": false,
          "internalType": "string",
          "name": "name",
          "type": "string"
        },
        {
          "indexed": false,
          "internalType": "string",
          "name": "email",
          "type": "string"
        }
      ],
      "name": "StudentRegistered",
      "type": "event"
    },
    {
      "inputs": [
        {
          "internalType": "address",
          "name": "_professor",
          "type": "address"
        }
      ],
      "name": "addProfessor",
      "outputs": [],
      "stateMutability": "nonpayable",
      "type": "function"
    },
    {
      "inputs": [
        {
          "internalType": "address",
          "name": "_student",
          "type": "address"
        }
      ],
      "name": "getStudentCourses",
      "outputs": [
        {
          "internalType": "string[]",
          "name": "",
          "type": "string[]"
        }
      ],
      "stateMutability": "view",
      "type": "function"
    },
    {
      "inputs": [
        {
          "internalType": "address",
          "name": "_student",
          "type": "address"
        }
      ],
      "name": "getStudentData",
      "outputs": [
        {
          "components": [
            {
              "internalType": "string",
              "name": "name",
              "type": "string"
            },
            {
              "internalType": "uint256",
              "name": "age",
              "type": "uint256"
            },
            {
              "internalType": "string",
              "name": "dob",
              "type": "string"
            },
            {
              "internalType": "string",
              "name": "location",
              "type": "string"
            },
            {
              "internalType": "string",
              "name": "aadharCard",
              "type": "string"
            },
            {
              "internalType": "uint256",
              "name": "abaCredits",
              "type": "uint256"
            },
            {
              "internalType": "string",
              "name": "email",
              "type": "string"
            },
            {
              "internalType": "string",
              "name": "phoneNumber",
              "type": "string"
            },
            {
              "internalType": "string[]",
              "name": "courses",
              "type": "string[]"
            },
            {
              "internalType": "bool",
              "name": "registered",
              "type": "bool"
            },
            {
              "components": [
                {
                  "internalType": "string",
                  "name": "researchInterests",
                  "type": "string"
                },
                {
                  "internalType": "string",
                  "name": "sop",
                  "type": "string"
                },
                {
                  "internalType": "string",
                  "name": "researchProposal",
                  "type": "string"
                },
                {
                  "internalType": "string",
                  "name": "professor",
                  "type": "string"
                }
              ],
              "internalType": "struct CourseRegistration.PhDApplication",
              "name": "phdApplication",
              "type": "tuple"
            }
          ],
          "internalType": "struct CourseRegistration.Student",
          "name": "",
          "type": "tuple"
        }
      ],
      "stateMutability": "view",
      "type": "function"
    },
    {
      "inputs": [
        {
          "internalType": "address",
          "name": "",
          "type": "address"
        }
      ],
      "name": "isProfessor",
      "outputs": [
        {
          "internalType": "bool",
          "name": "",
          "type": "bool"
        }
      ],
      "stateMutability": "view",
      "type": "function"
    },
    {
      "inputs": [
        {
          "internalType": "uint256",
          "name": "",
          "type": "uint256"
        }
      ],
      "name": "professorAddresses",
      "outputs": [
        {
          "internalType": "address",
          "name": "",
          "type": "address"
        }
      ],
      "stateMutability": "view",
      "type": "function"
    },
    {
      "inputs": [
        {
          "internalType": "string[]",
          "name": "_selectedCourses",
          "type": "string[]"
        }
      ],
      "name": "registerCourses",
      "outputs": [],
      "stateMutability": "nonpayable",
      "type": "function"
    },
    {
      "inputs": [
        {
          "internalType": "string",
          "name": "_researchInterests",
          "type": "string"
        },
        {
          "internalType": "string",
          "name": "_sop",
          "type": "string"
        },
        {
          "internalType": "string",
          "name": "_researchProposal",
          "type": "string"
        },
        {
          "internalType": "string",
          "name": "_professor",
          "type": "string"
        }
      ],
      "name": "registerForPhD",
      "outputs": [],
      "stateMutability": "nonpayable",
      "type": "function"
    },
    {
      "inputs": [
        {
          "internalType": "string",
          "name": "_name",
          "type": "string"
        },
        {
          "internalType": "uint256",
          "name": "_age",
          "type": "uint256"
        },
        {
          "internalType": "string",
          "name": "_dob",
          "type": "string"
        },
        {
          "internalType": "string",
          "name": "_location",
          "type": "string"
        },
        {
          "internalType": "string",
          "name": "_aadharCard",
          "type": "string"
        },
        {
          "internalType": "uint256",
          "name": "_abaCredits",
          "type": "uint256"
        },
        {
          "internalType": "string",
          "name": "_email",
          "type": "string"
        },
        {
          "internalType": "string",
          "name": "_phoneNumber",
          "type": "string"
        }
      ],
      "name": "signUp",
      "outputs": [],
      "stateMutability": "nonpayable",
      "type": "function"
    },
    {
      "inputs": [
        {
          "internalType": "uint256",
          "name": "",
          "type": "uint256"
        }
      ],
      "name": "studentAddresses",
      "outputs": [
        {
          "internalType": "address",
          "name": "",
          "type": "address"
        }
      ],
      "stateMutability": "view",
      "type": "function"
    },
    {
      "inputs": [
        {
          "internalType": "address",
          "name": "",
          "type": "address"
        }
      ],
      "name": "students",
      "outputs": [
        {
          "internalType": "string",
          "name": "name",
          "type": "string"
        },
        {
          "internalType": "uint256",
          "name": "age",
          "type": "uint256"
        },
        {
          "internalType": "string",
          "name": "dob",
          "type": "string"
        },
        {
          "internalType": "string",
          "name": "location",
          "type": "string"
        },
        {
          "internalType": "string",
          "name": "aadharCard",
          "type": "string"
        },
        {
          "internalType": "uint256",
          "name": "abaCredits",
          "type": "uint256"
        },
        {
          "internalType": "string",
          "name": "email",
          "type": "string"
        },
        {
          "internalType": "string",
          "name": "phoneNumber",
          "type": "string"
        },
        {
          "internalType": "bool",
          "name": "registered",
          "type": "bool"
        },
        {
          "components": [
            {
              "internalType": "string",
              "name": "researchInterests",
              "type": "string"
            },
            {
              "internalType": "string",
              "name": "sop",
              "type": "string"
            },
            {
              "internalType": "string",
              "name": "researchProposal",
              "type": "string"
            },
            {
              "internalType": "string",
              "name": "professor",
              "type": "string"
            }
          ],
          "internalType": "struct CourseRegistration.PhDApplication",
          "name": "phdApplication",
          "type": "tuple"
        }
      ],
      "stateMutability": "view",
      "type": "function"
    }
  ],
  "bytecode": "0x608060405234801561001057600080fd5b50612c53806100206000396000f3fe608060405234801561001057600080fd5b506004361061009e5760003560e01c8063b2b17ea011610066578063b2b17ea014610174578063b5ab682d146101a4578063cbffaa2a146101d4578063d40761e4146101f0578063f7883eee146102205761009e565b80632230107a146100a35780633f898323146100bf5780634268edaa146100ef578063680d759f1461010b578063a6c807a91461013b575b600080fd5b6100bd60048036038101906100b89190611e72565b61023c565b005b6100d960048036038101906100d49190611e49565b610465565b6040516100e69190612911565b60405180910390f35b61010960048036038101906101049190611e49565b610b8e565b005b610125600480360381019061012091906120b8565b610d64565b6040516101329190612692565b60405180910390f35b61015560048036038101906101509190611e49565b610da3565b60405161016b9a999897969594939291906127a4565b60405180910390f35b61018e60048036038101906101899190611e49565b611386565b60405161019b9190612789565b60405180910390f35b6101be60048036038101906101b991906120b8565b6113a6565b6040516101cb9190612692565b60405180910390f35b6101ee60048036038101906101e99190611f76565b6113e5565b005b61020a60048036038101906102059190611e49565b6117fd565b6040516102179190612767565b60405180910390f35b61023a60048036038101906102359190611eb3565b611917565b005b6000803373ffffffffffffffffffffffffffffffffffffffff1673ffffffffffffffffffffffffffffffffffffffff16815260200190815260200160002060090160009054906101000a900460ff166102ca576040517f08c379a00000000000000000000000000000000000000000000000000000000081526004016102c190612871565b60405180910390fd5b600081511161030e576040517f08c379a000000000000000000000000000000000000000000000000000000000815260040161030590612891565b60405180910390fd5b60005b8151811015610461576000803373ffffffffffffffffffffffffffffffffffffffff1673ffffffffffffffffffffffffffffffffffffffff168152602001908152602001600020600801828281518110610394577f4e487b7100000000000000000000000000000000000000000000000000000000600052603260045260246000fd5b60200260200101519080600181540180825580915050600190039060005260206000200160009091909190915090805190602001906103d4929190611b3f565b507f64787721f76cb5a9db7d737fe332bb2da24a93784f99ffc2f335c38ef164fbfd33838381518110610430577f4e487b7100000000000000000000000000000000000000000000000000000000600052603260045260246000fd5b60200260200101516040516104469291906126ad565b60405180910390a1808061045990612b08565b915050610311565b5050565b61046d611bc5565b6000808373ffffffffffffffffffffffffffffffffffffffff1673ffffffffffffffffffffffffffffffffffffffff168152602001908152602001600020604051806101600160405290816000820180546104c790612ad6565b80601f01602080910402602001604051908101604052809291908181526020018280546104f390612ad6565b80156105405780601f1061051557610100808354040283529160200191610540565b820191906000526020600020905b81548152906001019060200180831161052357829003601f168201915b505050505081526020016001820154815260200160028201805461056390612ad6565b80601f016020809104026020016040519081016040528092919081815260200182805461058f90612ad6565b80156105dc5780601f106105b1576101008083540402835291602001916105dc565b820191906000526020600020905b8154815290600101906020018083116105bf57829003601f168201915b505050505081526020016003820180546105f590612ad6565b80601f016020809104026020016040519081016040528092919081815260200182805461062190612ad6565b801561066e5780601f106106435761010080835404028352916020019161066e565b820191906000526020600020905b81548152906001019060200180831161065157829003601f168201915b5050505050815260200160048201805461068790612ad6565b80601f01602080910402602001604051908101604052809291908181526020018280546106b390612ad6565b80156107005780601f106106d557610100808354040283529160200191610700565b820191906000526020600020905b8154815290600101906020018083116106e357829003601f168201915b505050505081526020016005820154815260200160068201805461072390612ad6565b80601f016020809104026020016040519081016040528092919081815260200182805461074f90612ad6565b801561079c5780601f106107715761010080835404028352916020019161079c565b820191906000526020600020905b81548152906001019060200180831161077f57829003601f168201915b505050505081526020016007820180546107b590612ad6565b80601f01602080910402602001604051908101604052809291908181526020018280546107e190612ad6565b801561082e5780601f106108035761010080835404028352916020019161082e565b820191906000526020600020905b81548152906001019060200180831161081157829003601f168201915b5050505050815260200160088201805480602002602001604051908101604052809291908181526020016000905b8282101561090857838290600052602060002001805461087b90612ad6565b80601f01602080910402602001604051908101604052809291908181526020018280546108a790612ad6565b80156108f45780601f106108c9576101008083540402835291602001916108f4565b820191906000526020600020905b8154815290600101906020018083116108d757829003601f168201915b50505050508152602001906001019061085c565b5050505081526020016009820160009054906101000a900460ff16151515158152602001600a820160405180608001604052908160008201805461094b90612ad6565b80601f016020809104026020016040519081016040528092919081815260200182805461097790612ad6565b80156109c45780601f10610999576101008083540402835291602001916109c4565b820191906000526020600020905b8154815290600101906020018083116109a757829003601f168201915b505050505081526020016001820180546109dd90612ad6565b80601f0160208091040260200160405190810160405280929190818152602001828054610a0990612ad6565b8015610a565780601f10610a2b57610100808354040283529160200191610a56565b820191906000526020600020905b815481529060010190602001808311610a3957829003601f168201915b50505050508152602001600282018054610a6f90612ad6565b80601f0160208091040260200160405190810160405280929190818152602001828054610a9b90612ad6565b8015610ae85780601f10610abd57610100808354040283529160200191610ae8565b820191906000526020600020905b815481529060010190602001808311610acb57829003601f168201915b50505050508152602001600382018054610b0190612ad6565b80601f0160208091040260200160405190810160405280929190818152602001828054610b2d90612ad6565b8015610b7a5780601f10610b4f57610100808354040283529160200191610b7a565b820191906000526020600020905b815481529060010190602001808311610b5d57829003601f168201915b505050505081525050815250509050919050565b600160003373ffffffffffffffffffffffffffffffffffffffff1673ffffffffffffffffffffffffffffffffffffffff16815260200190815260200160002060009054906101000a900460ff16610c1a576040517f08c379a0000000000000000000000000000000000000000000000000000000008152600401610c11906128f1565b60405180910390fd5b600160008273ffffffffffffffffffffffffffffffffffffffff1673ffffffffffffffffffffffffffffffffffffffff16815260200190815260200160002060009054906101000a900460ff1615610ca7576040517f08c379a0000000000000000000000000000000000000000000000000000000008152600401610c9e906128b1565b60405180910390fd5b60018060008373ffffffffffffffffffffffffffffffffffffffff1673ffffffffffffffffffffffffffffffffffffffff16815260200190815260200160002060006101000a81548160ff0219169083151502179055506003819080600181540180825580915050600190039060005260206000200160009091909190916101000a81548173ffffffffffffffffffffffffffffffffffffffff021916908373ffffffffffffffffffffffffffffffffffffffff16021790555050565b60038181548110610d7457600080fd5b906000526020600020016000915054906101000a900473ffffffffffffffffffffffffffffffffffffffff1681565b6000602052806000526040600020600091509050806000018054610dc690612ad6565b80601f0160208091040260200160405190810160405280929190818152602001828054610df290612ad6565b8015610e3f5780601f10610e1457610100808354040283529160200191610e3f565b820191906000526020600020905b815481529060010190602001808311610e2257829003601f168201915b505050505090806001015490806002018054610e5a90612ad6565b80601f0160208091040260200160405190810160405280929190818152602001828054610e8690612ad6565b8015610ed35780601f10610ea857610100808354040283529160200191610ed3565b820191906000526020600020905b815481529060010190602001808311610eb657829003601f168201915b505050505090806003018054610ee890612ad6565b80601f0160208091040260200160405190810160405280929190818152602001828054610f1490612ad6565b8015610f615780601f10610f3657610100808354040283529160200191610f61565b820191906000526020600020905b815481529060010190602001808311610f4457829003601f168201915b505050505090806004018054610f7690612ad6565b80601f0160208091040260200160405190810160405280929190818152602001828054610fa290612ad6565b8015610fef5780601f10610fc457610100808354040283529160200191610fef565b820191906000526020600020905b815481529060010190602001808311610fd257829003601f168201915b50505050509080600501549080600601805461100a90612ad6565b80601f016020809104026020016040519081016040528092919081815260200182805461103690612ad6565b80156110835780601f1061105857610100808354040283529160200191611083565b820191906000526020600020905b81548152906001019060200180831161106657829003601f168201915b50505050509080600701805461109890612ad6565b80601f01602080910402602001604051908101604052809291908181526020018280546110c490612ad6565b80156111115780601f106110e657610100808354040283529160200191611111565b820191906000526020600020905b8154815290600101906020018083116110f457829003601f168201915b5050505050908060090160009054906101000a900460ff169080600a0160405180608001604052908160008201805461114990612ad6565b80601f016020809104026020016040519081016040528092919081815260200182805461117590612ad6565b80156111c25780601f10611197576101008083540402835291602001916111c2565b820191906000526020600020905b8154815290600101906020018083116111a557829003601f168201915b505050505081526020016001820180546111db90612ad6565b80601f016020809104026020016040519081016040528092919081815260200182805461120790612ad6565b80156112545780601f1061122957610100808354040283529160200191611254565b820191906000526020600020905b81548152906001019060200180831161123757829003601f168201915b5050505050815260200160028201805461126d90612ad6565b80601f016020809104026020016040519081016040528092919081815260200182805461129990612ad6565b80156112e65780601f106112bb576101008083540402835291602001916112e6565b820191906000526020600020905b8154815290600101906020018083116112c957829003601f168201915b505050505081526020016003820180546112ff90612ad6565b80601f016020809104026020016040519081016040528092919081815260200182805461132b90612ad6565b80156113785780601f1061134d57610100808354040283529160200191611378565b820191906000526020600020905b81548152906001019060200180831161135b57829003601f168201915b50505050508152505090508a565b60016020528060005260406000206000915054906101000a900460ff1681565b600281815481106113b657600080fd5b906000526020600020016000915054906101000a900473ffffffffffffffffffffffffffffffffffffffff1681565b6000803373ffffffffffffffffffffffffffffffffffffffff1673ffffffffffffffffffffffffffffffffffffffff16815260200190815260200160002060090160009054906101000a900460ff1615611474576040517f08c379a000000000000000000000000000000000000000000000000000000000815260040161146b906128d1565b60405180910390fd5b604051806101600160405280898152602001888152602001878152602001868152602001858152602001848152602001838152602001828152602001600067ffffffffffffffff8111156114f1577f4e487b7100000000000000000000000000000000000000000000000000000000600052604160045260246000fd5b60405190808252806020026020018201604052801561152457816020015b606081526020019060019003908161150f5790505b5081526020016001151581526020016040518060800160405280604051806020016040528060008152508152602001604051806020016040528060008152508152602001604051806020016040528060008152508152602001604051806020016040528060008152508152508152506000803373ffffffffffffffffffffffffffffffffffffffff1673ffffffffffffffffffffffffffffffffffffffff16815260200190815260200160002060008201518160000190805190602001906115ed929190611b3f565b50602082015181600101556040820151816002019080519060200190611614929190611b3f565b506060820151816003019080519060200190611631929190611b3f565b50608082015181600401908051906020019061164e929190611b3f565b5060a0820151816005015560c0820151816006019080519060200190611675929190611b3f565b5060e0820151816007019080519060200190611692929190611b3f565b506101008201518160080190805190602001906116b0929190611c27565b506101208201518160090160006101000a81548160ff02191690831515021790555061014082015181600a0160008201518160000190805190602001906116f8929190611b3f565b506020820151816001019080519060200190611715929190611b3f565b506040820151816002019080519060200190611732929190611b3f565b50606082015181600301908051906020019061174f929190611b3f565b5050509050506002339080600181540180825580915050600190039060005260206000200160009091909190916101000a81548173ffffffffffffffffffffffffffffffffffffffff021916908373ffffffffffffffffffffffffffffffffffffffff1602179055507f5a50055b3981e19f1c8cb31d2bf002360afb82c9a429fa8d5774508a689f75c93389846040516117eb939291906126dd565b60405180910390a15050505050505050565b60606000808373ffffffffffffffffffffffffffffffffffffffff1673ffffffffffffffffffffffffffffffffffffffff168152602001908152602001600020600801805480602002602001604051908101604052809291908181526020016000905b8282101561190c57838290600052602060002001805461187f90612ad6565b80601f01602080910402602001604051908101604052809291908181526020018280546118ab90612ad6565b80156118f85780601f106118cd576101008083540402835291602001916118f8565b820191906000526020600020905b8154815290600101906020018083116118db57829003601f168201915b505050505081526020019060010190611860565b505050509050919050565b6000803373ffffffffffffffffffffffffffffffffffffffff1673ffffffffffffffffffffffffffffffffffffffff16815260200190815260200160002060090160009054906101000a900460ff166119a5576040517f08c379a000000000000000000000000000000000000000000000000000000000815260040161199c90612871565b60405180910390fd5b6040518060800160405280858152602001848152602001838152602001828152506000803373ffffffffffffffffffffffffffffffffffffffff1673ffffffffffffffffffffffffffffffffffffffff168152602001908152602001600020600a016000820151816000019080519060200190611a23929190611b3f565b506020820151816001019080519060200190611a40929190611b3f565b506040820151816002019080519060200190611a5d929190611b3f565b506060820151816003019080519060200190611a7a929190611b3f565b509050507f5a50055b3981e19f1c8cb31d2bf002360afb82c9a429fa8d5774508a689f75c9336000803373ffffffffffffffffffffffffffffffffffffffff1673ffffffffffffffffffffffffffffffffffffffff1681526020019081526020016000206000016000803373ffffffffffffffffffffffffffffffffffffffff1673ffffffffffffffffffffffffffffffffffffffff168152602001908152602001600020600601604051611b3193929190612722565b60405180910390a150505050565b828054611b4b90612ad6565b90600052602060002090601f016020900481019282611b6d5760008555611bb4565b82601f10611b8657805160ff1916838001178555611bb4565b82800160010185558215611bb4579182015b82811115611bb3578251825591602001919060010190611b98565b5b509050611bc19190611c87565b5090565b604051806101600160405280606081526020016000815260200160608152602001606081526020016060815260200160008152602001606081526020016060815260200160608152602001600015158152602001611c21611ca4565b81525090565b828054828255906000526020600020908101928215611c76579160200282015b82811115611c75578251829080519060200190611c65929190611b3f565b5091602001919060010190611c47565b5b509050611c839190611ccc565b5090565b5b80821115611ca0576000816000905550600101611c88565b5090565b6040518060800160405280606081526020016060815260200160608152602001606081525090565b5b80821115611cec5760008181611ce39190611cf0565b50600101611ccd565b5090565b508054611cfc90612ad6565b6000825580601f10611d0e5750611d2d565b601f016020900490600052602060002090810190611d2c9190611c87565b5b50565b6000611d43611d3e84612964565b612933565b9050808382526020820190508260005b85811015611d835781358501611d698882611e0a565b845260208401935060208301925050600181019050611d53565b5050509392505050565b6000611da0611d9b84612990565b612933565b905082815260208101848484011115611db857600080fd5b611dc3848285612a94565b509392505050565b600081359050611dda81612bef565b92915050565b600082601f830112611df157600080fd5b8135611e01848260208601611d30565b91505092915050565b600082601f830112611e1b57600080fd5b8135611e2b848260208601611d8d565b91505092915050565b600081359050611e4381612c06565b92915050565b600060208284031215611e5b57600080fd5b6000611e6984828501611dcb565b91505092915050565b600060208284031215611e8457600080fd5b600082013567ffffffffffffffff811115611e9e57600080fd5b611eaa84828501611de0565b91505092915050565b60008060008060808587031215611ec957600080fd5b600085013567ffffffffffffffff811115611ee357600080fd5b611eef87828801611e0a565b945050602085013567ffffffffffffffff811115611f0c57600080fd5b611f1887828801611e0a565b935050604085013567ffffffffffffffff811115611f3557600080fd5b611f4187828801611e0a565b925050606085013567ffffffffffffffff811115611f5e57600080fd5b611f6a87828801611e0a565b91505092959194509250565b600080600080600080600080610100898b031215611f9357600080fd5b600089013567ffffffffffffffff811115611fad57600080fd5b611fb98b828c01611e0a565b9850506020611fca8b828c01611e34565b975050604089013567ffffffffffffffff811115611fe757600080fd5b611ff38b828c01611e0a565b965050606089013567ffffffffffffffff81111561201057600080fd5b61201c8b828c01611e0a565b955050608089013567ffffffffffffffff81111561203957600080fd5b6120458b828c01611e0a565b94505060a06120568b828c01611e34565b93505060c089013567ffffffffffffffff81111561207357600080fd5b61207f8b828c01611e0a565b92505060e089013567ffffffffffffffff81111561209c57600080fd5b6120a88b828c01611e0a565b9150509295985092959890939650565b6000602082840312156120ca57600080fd5b60006120d884828501611e34565b91505092915050565b60006120ed838361220c565b905092915050565b6120fe81612a4c565b82525050565b600061210f826129e5565b6121198185612a08565b93508360208202850161212b856129c0565b8060005b85811015612167578484038952815161214885826120e1565b9450612153836129fb565b925060208a0199505060018101905061212f565b50829750879550505050505092915050565b6000612184826129e5565b61218e8185612a19565b9350836020820285016121a0856129c0565b8060005b858110156121dc57848403895281516121bd85826120e1565b94506121c8836129fb565b925060208a019950506001810190506121a4565b50829750879550505050505092915050565b6121f781612a5e565b82525050565b61220681612a5e565b82525050565b6000612217826129f0565b6122218185612a2a565b9350612231818560208601612aa3565b61223a81612bde565b840191505092915050565b6000612250826129f0565b61225a8185612a3b565b935061226a818560208601612aa3565b61227381612bde565b840191505092915050565b6000815461228b81612ad6565b6122958186612a3b565b945060018216600081146122b057600181146122c2576122f5565b60ff19831686526020860193506122f5565b6122cb856129d0565b60005b838110156122ed578154818901526001820191506020810190506122ce565b808801955050505b50505092915050565b600061230b601683612a3b565b91507f53747564656e74206e6f742072656769737465726564000000000000000000006000830152602082019050919050565b600061234b602183612a3b565b91507f506c656173652073656c656374206174206c65617374206f6e6520636f75727360008301527f65000000000000000000000000000000000000000000000000000000000000006020830152604082019050919050565b60006123b1601783612a3b565b91507f50726f666573736f7220616c72656164792061646465640000000000000000006000830152602082019050919050565b60006123f1601a83612a3b565b91507f53747564656e7420616c726561647920726567697374657265640000000000006000830152602082019050919050565b6000612431600e83612a3b565b91507f4e6f7420617574686f72697a65640000000000000000000000000000000000006000830152602082019050919050565b60006080830160008301518482036000860152612481828261220c565b9150506020830151848203602086015261249b828261220c565b915050604083015184820360408601526124b5828261220c565b915050606083015184820360608601526124cf828261220c565b9150508091505092915050565b600060808301600083015184820360008601526124f9828261220c565b91505060208301518482036020860152612513828261220c565b9150506040830151848203604086015261252d828261220c565b91505060608301518482036060860152612547828261220c565b9150508091505092915050565b6000610160830160008301518482036000860152612572828261220c565b91505060208301516125876020860182612674565b506040830151848203604086015261259f828261220c565b915050606083015184820360608601526125b9828261220c565b915050608083015184820360808601526125d3828261220c565b91505060a08301516125e860a0860182612674565b5060c083015184820360c0860152612600828261220c565b91505060e083015184820360e086015261261a828261220c565b9150506101008301518482036101008601526126368282612104565b91505061012083015161264d6101208601826121ee565b506101408301518482036101408601526126678282612464565b9150508091505092915050565b61267d81612a8a565b82525050565b61268c81612a8a565b82525050565b60006020820190506126a760008301846120f5565b92915050565b60006040820190506126c260008301856120f5565b81810360208301526126d48184612245565b90509392505050565b60006060820190506126f260008301866120f5565b81810360208301526127048185612245565b905081810360408301526127188184612245565b9050949350505050565b600060608201905061273760008301866120f5565b8181036020830152612749818561227e565b9050818103604083015261275d818461227e565b9050949350505050565b600060208201905081810360008301526127818184612179565b905092915050565b600060208201905061279e60008301846121fd565b92915050565b60006101408201905081810360008301526127bf818d612245565b90506127ce602083018c612683565b81810360408301526127e0818b612245565b905081810360608301526127f4818a612245565b905081810360808301526128088189612245565b905061281760a0830188612683565b81810360c08301526128298187612245565b905081810360e083015261283d8186612245565b905061284d6101008301856121fd565b81810361012083015261286081846124dc565b90509b9a5050505050505050505050565b6000602082019050818103600083015261288a816122fe565b9050919050565b600060208201905081810360008301526128aa8161233e565b9050919050565b600060208201905081810360008301526128ca816123a4565b9050919050565b600060208201905081810360008301526128ea816123e4565b9050919050565b6000602082019050818103600083015261290a81612424565b9050919050565b6000602082019050818103600083015261292b8184612554565b905092915050565b6000604051905081810181811067ffffffffffffffff8211171561295a57612959612baf565b5b8060405250919050565b600067ffffffffffffffff82111561297f5761297e612baf565b5b602082029050602081019050919050565b600067ffffffffffffffff8211156129ab576129aa612baf565b5b601f19601f8301169050602081019050919050565b6000819050602082019050919050565b60008190508160005260206000209050919050565b600081519050919050565b600081519050919050565b6000602082019050919050565b600082825260208201905092915050565b600082825260208201905092915050565b600082825260208201905092915050565b600082825260208201905092915050565b6000612a5782612a6a565b9050919050565b60008115159050919050565b600073ffffffffffffffffffffffffffffffffffffffff82169050919050565b6000819050919050565b82818337600083830152505050565b60005b83811015612ac1578082015181840152602081019050612aa6565b83811115612ad0576000848401525b50505050565b60006002820490506001821680612aee57607f821691505b60208210811415612b0257612b01612b80565b5b50919050565b6000612b1382612a8a565b91507fffffffffffffffffffffffffffffffffffffffffffffffffffffffffffffffff821415612b4657612b45612b51565b5b600182019050919050565b7f4e487b7100000000000000000000000000000000000000000000000000000000600052601160045260246000fd5b7f4e487b7100000000000000000000000000000000000000000000000000000000600052602260045260246000fd5b7f4e487b7100000000000000000000000000000000000000000000000000000000600052604160045260246000fd5b6000601f19601f8301169050919050565b612bf881612a4c565b8114612c0357600080fd5b50565b612c0f81612a8a565b8114612c1a57600080fd5b5056fea2646970667358221220800129bfb56e6055172ce3f10bc0ca99001a58f053d7f40abfbf2a7535d04a2764736f6c63430008000033",
  "linkReferences": {},
  "deployedLinkReferences": {}
}